:020000040800F2
:100000003005002001010008090100080B0100086B
:100010000D0100080F010008110100080000000098
:1000200000000000000000000000000013010008B4
:100030001501000800000000170100081901000860
:100040001B0100081B0100081B0100081B01000820
:100050001B0100081B010008490100081B010008E2
:100060001B0100081B0100081B0100081B01000800
:100070001B0100081B0100081B0100081B010008F0
:100080001B0100081B0100081B0100081B010008E0
:100090001B0100081B0100081B01000839020008B1
:1000A0001B0100081B0100081B0100081B010008C0
:1000B0002D0D00083D0D0008610D00081B01000812
:1000C0001B0100081B0100081B0100081B010008A0
:1000D0001B010008D11500086516000895160008D8
:1000E000990100081B0100081B010008DFF80CD073
:1000F00000F018F800480047151A000830050020E5
:100100000648804706480047FEE7FEE7FEE7FEE7B1
:10011000FEE7FEE7FEE7FEE7FEE7FEE7CD0C0008A0
:10012000ED000008064C074D06E0E06840F00103D2
:1001300094E8070098471034AC42F6D3FFF7DAFF93
:10014000BC1B0008DC1B000810B50A2001F02AFCCB
:1001500001210D4800F066FB012810D10B48006812
:1001600008B9012000E00020084908600848D0F8DC
:10017000880108B9012000E000200649086001203C
:1001800000F012F910BD000000080140A00121425A
:10019000008022428881224210B50A2001F002FC30
:1001A0004FF400411E4800F03DFBA0BB1D48006815
:1001B00008B9012000E000201A4908601A480068C8
:1001C000022806D140F26A420321184800F0A8FF35
:1001D00009E015480068012805D14FF4EB720321AE
:1001E000124800F09DFF0020114908604FF4FA709A
:1001F00000F0ACFC4FF4487203210C4800F090FF73
:1002000040F6BE2000F0A2FC01200A49C1F8A4017A
:10021000382101F0A3F94FF4004000F0C5F810BDFB
:10022000000C0140888122420000002000040040B0
:10023000948121420080214210B50A2001F0B2FBD6
:1002400080211E4800F0EEFAA0BB1D48006808B9E6
:10025000012000E000201A4908601A4800680428BC
:1002600006D140F26A420321174800F059FF09E025
:1002700014480068032805D14FF4EB72032112489B
:1002800000F04EFF0120114908604FF4FA7000F0B1
:100290005DFC4FF4487203210B4800F041FF40F62B
:1002A000BE2000F053FC01200949C1F8A401382107
:1002B00001F054F9802000F077F810BD00100140E3
:1002C000A00121420000002000040040948121424E
:1002D000008021420EB50121084600F071FB00F0BC
:1002E000ADFA0F21012000F0AFF84FF4004001906B
:1002F00000208DF808000C208DF8090001208DF8F1
:100300000A0001A800F056F80721022000F09CF82E
:100310008020019000208DF808000C208DF8090045
:1003200001208DF80A0001A800F044F800210846D9
:1003300000F08AF80120019000208DF808000820C4
:100340008DF8090001208DF80A0001A800F032F8AC
:1003500006208DF8000002208DF801008DF80200C3
:1003600001208DF80300684600F0C2FA17208DF8CE
:10037000000002208DF8010001208DF802008DF8A8
:100380000300684600F0B4FA28208DF8000002202F
:100390008DF8010000208DF8020001208DF8030087
:1003A000684600F0A5FA0EBD0149086070470000DC
:1003B00014040140002123498279002A3AD00A46D8
:1003C000126803689A430B461A600A1D1268036894
:1003D0009A430B1D1A60027911440A6803681A4394
:1003E0000A60184A0832126803689A43154B0833AA
:1003F0001A601A1D126803689A43124B0C331A6074
:100400004279102A0ED11A1F126803681A430D4B45
:1004100008331A601A1D126803681A43094B0C331B
:100420001A600DE00749427911440A6803681A43CB
:100430000A6005E0027911440A6803689A430A6079
:10044000704700000004014030B500228B071C0FEC
:100450000F2303FA04F20B4B8C1053F82430934310
:10046000084C8D1044F8253023468C1053F8243066
:100470008C07240F00FA04F42343024C8D1044F837
:10048000253030BD080001402DE9F041024600252D
:100490000026002000230024002791F803C00CF060
:1004A0000F0591F803C00CF0100CBCF1000F03D045
:1004B00091F802C04CEA050591F800C0BCF1000FAC
:1004C00031D0146800202BE04FF0010C0CFA00F33F
:1004D000B1F800C00CEA03069E4220D183004FF021
:1004E0000F0C0CFA03F7BC4305FA03FC4CEA0404B6
:1004F00091F803C0BCF1280F06D14FF0010C0CFAA3
:1005000000FCC2F814C00AE091F803C0BCF1480F27
:1005100005D14FF0010C0CFA00FCC2F810C0401CD1
:100520000828D1D31460B1F800C0BCF1FF0F34DD4E
:10053000546800202EE000F1080C4FF0010808FA82
:100540000CF3B1F800C00CEA03069E4221D18300EF
:100550004FF00F0C0CFA03F7BC4305FA03FC4CEA0E
:10056000040491F803C0BCF1280F05D100F1080C78
:1005700008FA0CF8C2F8148091F803C0BCF1480FD7
:1005800007D100F1080C4FF0010808FA0CF8C2F886
:100590001080401C0828CED35460BDE8F0810000D4
:1005A00070B505460C46B5F1804F22D1012C06D01E
:1005B000022C0AD0032C0ED0042C18D111E01822E2
:1005C0000121002000F0B0F812E0182202210020E2
:1005D00000F0AAF80CE018220421002000F0A4F892
:1005E00006E018220821002000F09EF800E000BF7D
:1005F0004DE02748854222D1012C06D0022C0AD09A
:10060000032C0ED0042C18D111E018224021002018
:1006100000F08AF812E018228021002000F084F80F
:100620000CE018220121084600F07EF806E01822AE
:100630000221012000F078F800E000BF27E0154813
:10064000854224D1012C06D0022C0AD0032C0ED0D6
:10065000042C1AD112E018224021012000F064F885
:1006600014E018228021012000F05EF80EE018222C
:100670004FF48071012000F057F807E018224FF482
:100680000071012000F050F800E000BF00BF70BD15
:100690000004004000080040F0B50A460023002492
:1006A0000021002500F00046B6F1004F02D11D4E9A
:1006B000F16901E01B4E7168C0F3034583B200F499
:1006C0004016B6F5401F08D121F07061154E7668CE
:1006D00026F07066134F7E6012E000F48016B6F5C7
:1006E000801F06D1032606FA05F4A14341F070618C
:1006F00006E0460D360103FA06F6B14341F070619B
:1007000022B1460D360103FA06F6314300F00046E9
:10071000B6F1004F02D1034EF16101E0014E71606C
:10072000F0BD000000000140F8B506460C46154635
:10073000052E65D2DFE806F0031431425300012193
:10074000042000F03DF9A0B2ADF800008DF8035090
:1007500003208DF8020069462C48FFF795FE51E012
:100760000121082000F02CF9A0B2ADF80000102CF7
:1007700001D0082C07D10121084600F021F9012100
:100780002348FFF789FF8DF8035003208DF80200FE
:1007900069462048FFF778FE34E00121102000F080
:1007A0000FF9A0B2ADF800008DF8035003208DF8CA
:1007B000020069461848FFF767FE23E00121202068
:1007C00000F0FEF8A0B2ADF800008DF80350032051
:1007D0008DF8020069461148FFF756FE12E001212C
:1007E000402000F0EDF8A0B2ADF800008DF8035005
:1007F00003208DF8020069460948FFF745FE01E035
:100800000020F8BD00BF0120FBE700000008014008
:1008100000023000000C01400010014000140140B3
:10082000001801400246002093680B400BB10120E4
:1008300000E00020704701617047000008B5012109
:10084000142000F0BDF801211148FFF725FF4FF4F7
:100850000040ADF8000048208DF8030069460D48BF
:10086000FFF712FE8020ADF8000048208DF803004D
:1008700069460948FFF708FE0120ADF8000028206E
:100880008DF8030069460548FFF7FEFD08BD00002E
:1008900000023000000C014000100140000801403F
:1008A00008B50121242000F08BF84FF48070ADF8DA
:1008B000000010208DF8030003208DF80200694627
:1008C0000948FFF7E1FD4FF480710748FFF7B3FFD8
:1008D0000420ADF8000069460448FFF7D5FD042167
:1008E0000248FFF7A8FF08BD0008014000140140BE
:1008F00070B5002100230F22C47804B3154C24687E
:1009000004F4E064C4F5E064210AC1F10403CA40C0
:10091000447804FA03F184781440214309010E4C11
:100920000678A155047804F01F050124AC40057831
:100930006D11AD0005F1E025C5F8004109E004782E
:1009400004F01F050124AC40044D0678761145F8EB
:10095000264070BD0CED00E000E400E080E100E026
:1009600002490143024A1160704700000000FA0585
:100970000CED00E010B54FF4A060FFF7F1FF10BDE3
:1009800029B1064AD2690243044BDA6104E0034A02
:10099000D2698243014BDA617047000000100240C7
:1009A00029B1064A12690243044B1A6104E0034A62
:1009B00012698243014B1A61704700000010024027
:1009C00029B1064A92690243044B9A6104E0034A42
:1009D00092698243014B9A61704700000010024007
:1009E00029B1064AD2680243044BDA6004E0034AA4
:1009F000D2688243014BDA60704700000010024069
:100A000030B500210022002400232D4D6D6805F033
:100A10000C0121B1042905D0082923D105E0294D75
:100A2000056022E0274D05601FE0254D6D6805F447
:100A30007012234D6D6805F48034022505EB924257
:100A40001CB9214D554305600BE01D4D6D6805F443
:100A500000351DB11C4D5543056002E0194D55434D
:100A6000056002E0174D056000BF00BF144D6D68C2
:100A700005F0F0010909154D6B5C0568DD40456026
:100A80000F4D6D6805F4E061090A104D6B5C456817
:100A9000DD4085600A4D6D6805F46051C90A0B4D53
:100AA0006B5C4568DD40C560054D6D6805F44041EF
:100AB000890B074D6B5CC568B5FBF3F5056130BD6F
:100AC0000010024000127A0000093D0004000020DE
:100AD00014000020012808D14FF0E021096941F0FD
:100AE00001014FF0E022116107E04FF0E0210969B8
:100AF00021F001014FF0E0221161704710B56FF055
:100B0000040000F0CFF80D4800680D49B0FBF1F08B
:100B10000C4908700846007800EB4001C1EBC0109A
:100B20004FF6FF7101EAC000074908800120FFF776
:100B3000D1FF002000F02EF810BD0000240000209E
:100B400000127A00180000201A00002010B501469B
:100B50000F4B1B884FF0E024636123461B6943F071
:100B60000103236100220FE000234FF0E024A36182
:100B700000BF4FF0E023186900F001031BB100F43F
:100B80008033002BF5D0521C8A42EDD310BD0000FB
:100B90001A000020012808D14FF0E021096941F036
:100BA00002014FF0E022116107E04FF0E0210969F6
:100BB00021F002014FF0E0221161704710B500F002
:100BC00001F810BD0CB5002001900090334800687A
:100BD00040F480303149086000BF3048006800F4BC
:100BE000003000900198401C0190009818B90198BD
:100BF000B0F5A06FF1D12948006800F4003010B1C1
:100C00000120009001E0002000900098012843D1CD
:100C10002348006840F01000214908600846006839
:100C200020F0030008600846006840F002000860F9
:100C30001A484068194948600846406848600846B4
:100C4000406840F4806048600846406820F47C10AA
:100C500048600846406840F4E8104860084600686C
:100C600040F08070086000BF0C48006800F0007021
:100C70000028F9D00948406820F00300074948607F
:100C80000846406840F00200486000BF03484068E2
:100C900000F00C000828F9D10CBD00000010024043
:100CA00000200240042808D14FF0E021096941F0FA
:100CB00004014FF0E022116107E04FF0E0210969E3
:100CC00021F004014FF0E0221161704710B5134884
:100CD000006840F00100114908600846406810496A
:100CE00008400E494860084600680E4908400B4914
:100CF00008600846006820F48020086008464068C4
:100D000020F4FE0048604FF41F008860FFF756FF94
:100D10004FF000600449086010BD00000010024060
:100D20000000FFF8FFFFF6FE08ED00E010B503211C
:100D30004FF0804000F026F810BD000010B50648C6
:100D4000C06818B10449C868804703E0032103481C
:100D500000F018F810BD000014010020000400404D
:100D600010B50648006918B104490869804703E0D6
:100D70000321034800F006F810BD00001401002014
:100D800000080040CA430282704721B1028842F045
:100D90000102028004E002884FF6FE731A400280CE
:100DA0007047000070B5002400220023058C4FF628
:100DB000FE7635400584028C8388048B4FF68F7550
:100DC0002C40B51E2C400D882C43751E2A400D89E1
:100DD0002A434D882A43144DA8420BD0134DA842F4
:100DE00008D0134DA84205D0124DA84202D0124D92
:100DF000A84213D14FF6F7752A404D892A434FF682
:100E0000FB752A408D882A434FF6FF652B404FF62D
:100E1000FF552B408D892B43CD892B438380048341
:100E2000CD888586028470BD002C014000340140CD
:100E30000040014000440140004801400A460021B2
:100E4000018B4FF6F773194011430183704700007F
:100E500070B5002400220023058C4FF6EF76354054
:100E60000584028C8388048B48F6FF752C404FF66E
:100E7000FF452C400D884FF6FF7606EA05252C43EA
:100E80004FF6DF752A400D8906EA05152A434D887D
:100E900006EA05152A43154DA84202D0144DA84272
:100EA0001DD14FF67F752A404D894FF6FF7606EA31
:100EB00005152A434FF6BF752A408D8806EA0515A9
:100EC0002A434FF6FF352B404FF2FF752B408D899B
:100ED00006EA85052B43CD8906EA85052B438380E9
:100EE0000483CD880587028470BD0000002C01407A
:100EF000003401400A460021018B4FF2FF73194074
:100F00004FF6FF7303EA0223194301837047000081
:100F100070B5002400220023058C4FF6FF66354093
:100F20000584028C8388848B4FF68F752C404FF696
:100F3000FC752C400D882C434FF6FF552A400D8937
:100F40004FF6FF7606EA05252A434D8806EA052571
:100F50002A43154DA84202D0144DA8421DD14FF28C
:100F6000FF752A404D894FF6FF7606EA05252A438C
:100F70004FF6FF352A408D8806EA05252A434EF6AE
:100F8000FF752B404DF6FF752B408D8906EA051540
:100F90002B43CD8906EA05152B4383808483CD88B6
:100FA0008587028470BD0000002C014000340140A0
:100FB0000A460021818B4FF6F77319401143818354
:100FC0007047000070B5002200230024058C4EF607
:100FD000FF7635400584038C8488828B48F6FF7544
:100FE0002A404FF6FF452A400D884FF6FF7606EA65
:100FF00005252A434DF6FF752B400D8906EA053578
:101000002B434D8806EA05352B430B4DA84202D0F1
:101010000A4DA84208D14BF6FF752C408D894FF63A
:10102000FF7606EA85152C4384808283CD88A0F85C
:101030004050038470BD0000002C0140003401408A
:101040000A460021818B4FF2FF7319404FF6FF7360
:1010500003EA02231943818370477FB505460C4696
:101060006020ADF800000120ADF802000020ADF8CE
:101070000800012C06D0022C0DD0032C14D0042C17
:1010800024D11AE069462846FFF78CFE082128463D
:10109000FFF7D4FE1BE069462846FFF7D9FE08217A
:1010A0002846FFF727FF12E069462846FFF730FF82
:1010B00008212846FFF77CFF09E069462846FFF72C
:1010C00081FF08212846FFF7BBFF00E000BF00BFFB
:1010D0007FBD00002DE9F0470746884614461D46AF
:1010E0000E48B0FBF4F6B0FBF4F104FB1109B9EBC8
:1010F000540F00D3761C41463846FFF751FA2A4672
:101100003146384600F09CF841463846FFF7A5FFC7
:1011100029463846FFF739FEBDE8F08700A24A04A9
:101120002DE9F04105460E46144642F21070844205
:1011300002D90020BDE8F081AF8D781C604342F2F7
:101140001071B0FBF1F4012E06D0022E09D0032E4F
:101150000CD0042E14D10EE0A1B2284600F014F8F1
:101160000FE0A1B2284600F011F80AE0A1B228462B
:1011700000F00EF805E0A1B2284600F00BF800E000
:1011800000BF00BF0120D5E7818670470187704707
:1011900081877047A0F84010704700000022028845
:1011A0001D4B98420ED01D4B98420BD0B0F1804F92
:1011B00008D01B4B984205D01A4B984202D01A4BCC
:1011C000984204D14FF68F731A404B881A43174B3D
:1011D000984207D0164B984204D04FF6FF431A406E
:1011E000CB881A4302808B8883850B8803850A4B42
:1011F00098420BD0094B984208D00E4B984205D02C
:101200000D4B984202D00D4B984201D10B7A0386C8
:101210000123838270470000002C0140003401400C
:101220000004004000080040000C00400010004096
:1012300000140040004001400044014000480140CB
:101240002DE9FE4305460E469146B04644F6206021
:10125000B8FBF0F084B2012C05DC0024A8F10100F9
:10126000804687B216E0012C0ADD42F210708442FB
:1012700006DCB8FBF4F0401E87B2601E84B209E0C1
:1012800042F21070844205DD17A000F041FB0020FF
:10129000BDE8FE83B5F1804F04D101210846FFF778
:1012A0006FFB0EE01548854204D101210220FFF7B3
:1012B00067FB06E01248854203D101210420FFF7B5
:1012C0005FFBADF80470ADF800400020ADF80600FB
:1012D000ADF8020069462846FFF760FF49462846F8
:1012E000FFF753FD0120D3E754696D5F75732069E3
:1012F0007320746F6F206D756368000000040040F8
:10130000000800402DE9F04186B080460C461546A5
:101310001E460C9FB8F1010F06D0B8F1020F4ED057
:10132000B8F1030F7ED194E0012144F20400FFF7ED
:1013300047FB704800F0D2F94FF40070ADF814008C
:1013400003208DF8160018208DF8170005A96A48AB
:10135000FFF79AF84FF48060ADF8140004208DF880
:10136000170005A96448FFF78FF825208DF80000C5
:10137000E8B28DF80100F0B28DF802008DF803702C
:101380006846FFF7B5FA01940020ADF80800ADF803
:101390000A00ADF80C00ADF810000C20ADF80E00FE
:1013A00001A9544800F044FA3A4640F22551514808
:1013B00000F019FA01214F4800F084F900BF012123
:1013C0004E48FFF7FDFA4E4800F088F90420ADF8CA
:1013D000140003208DF8160018208DF8170005A9B9
:1013E0004548FFF751F80820ADF8140004208DF8A7
:1013F000170005A94048FFF747F826208DF80000A0
:10140000E8B28DF80100F0B28DF802008DF803709B
:101410006846FFF76DFA01940020ADF80800ADF8BA
:101420000A0000E05FE0ADF80C00ADF810000C2001
:10143000ADF80E0001A9324800F0FAF93A4640F240
:1014400025512F4800F0CFF901212D4800F03AF93D
:101450004DE001212B48FFF7B3FA2B4800F03EF98D
:101460004FF48060ADF8140003208DF816001820AA
:101470008DF8170005A92548FFF706F84FF400601E
:10148000ADF8140004208DF8170005A91F48FEF7D9
:10149000FBFF27208DF80000E8B28DF80100F0B2C4
:1014A0008DF802008DF803706846FFF721FA019469
:1014B0000020ADF80800ADF80A00ADF80C00ADF85A
:1014C00010000C20ADF80E0001A90F4800F0B0F993
:1014D0003A4640F22551074800F085F901210A48B3
:1014E00000F0F0F803E0002006B0BDE8F08100BF96
:1014F0000120F9E700380140000801400400020023
:10150000004400400800040000480040000C014076
:101510000246012A04D0022A08D0032A12D10BE085
:101520000B480088C0F3080008800DE009480088D7
:10153000C0F30800088007E007480088C0F30800EF
:10154000088001E00020704700BF0120FBE7000099
:1015500004380140044400400448004070B505468A
:101560000C46012D04D0022D0FD0032D27D119E0F8
:10157000C4F308001349088000BF40211148001F30
:1015800000F0FAF80028F8D019E0C4F308000E497A
:10159000088000BF40210B48001F00F0EDF8002834
:1015A000F8D00CE0C4F308000849088000BF4021CF
:1015B0000448001F00F0E0F80028F8D000BF00BF8A
:1015C00070BD00000438014004440040044800405D
:1015D00008B540F22551204800F0DBF830B36946E9
:1015E0000120FFF795FF1D48008800F40040E8B98E
:1015F0001A48008800F4804070B1BDF800000A2845
:1016000003D000201549088024E01448008840F4E5
:101610000040124908801DE0BDF800000D2806D1E9
:101620000E48008840F480400C49088012E0BDF864
:1016300000000A490988C1F30D01094A50540748BE
:101640000088401C0549088008460088C72801DD3D
:101650000020088008BD0000003801401C00002068
:101660003C00002008B540F22551084800F091F8F0
:1016700058B169460220FFF74BFF0548806820B14A
:1016800003488168BDF80000884708BD0044004059
:101690000401002008B540F22551084800F079F80F
:1016A00058B169460320FFF733FF0548C06820B1F1
:1016B0000348C168BDF80000884708BD00480040E5
:1016C0000401002021B1828942F40052828104E0A9
:1016D00082894DF6FF731A408281704710B5044627
:1016E0002048844209D101218803FFF779F90021BC
:1016F0004FF48040FFF774F932E01B48844209D16F
:1017000001214804FFF74CF900214FF40030FFF7A6
:1017100047F925E01548844209D101218804FFF7E3
:101720003FF900214FF48020FFF73AF918E0104804
:10173000844209D10121C804FFF732F900214FF496
:101740000020FFF72DF90BE00A48844208D101215F
:101750000805FFF725F900214FF48010FFF720F965
:1017600010BD000000380140004400400048004027
:10177000004C00400050004002460020B1F5007FC0
:1017800000D100BF13880B400BB1012000E0002006
:10179000704770B50246002400230025002040F663
:1017A0006A16B14200D100BFC1F3421501F01F0318
:1017B000012606FA03F3012D02D19689334006E093
:1017C000022D02D1168A334001E0968A33400C1272
:1017D000012606FA04F41688344013B10CB1012036
:1017E00000E0002070BDF0B503460024002600256F
:1017F000002040F66A17B94200D100BF1846C1F375
:10180000421401F01F06012707FA06F5012C01D149
:101810000C3004E0022C01D1103000E014301AB179
:1018200007682F43076002E00768AF430760F0BD19
:101830002DE9F04786B005460E460024A24600BFBB
:10184000A1460027B08900B100BF2F462C8A4CF674
:10185000FF700440F08804432C82AC894EF6F310EC
:101860000440B08831890843718908430443AC813E
:10187000AC8A4FF6FF400440B0890443AC8201A813
:10188000FFF7BEF81F48874202D1DDF810A001E043
:10189000DDF80CA0A88900F4004040B10AEBCA00B2
:1018A00000EB0A1031684900B0FBF1F807E00AEBE1
:1018B000CA0000EB0A1031688900B0FBF1F864201F
:1018C000B8FBF0F004012009642101FB1089A8890C
:1018D00000F4004040B1322000EBC900B0FBF1F051
:1018E00000F00700044308E0322000EB09106421F7
:1018F000B0FBF1F000F00F0004432C8106B0BDE80E
:10190000F087000000380140C1F308028280704770
:10191000014A024900F013B8F1190008380000200C
:1019200002E008C8121F08C1002AFAD170477047A8
:10193000002001E001C1121F002AFBD170472DE9F0
:10194000F04116460F460446002503E03946B047ED
:10195000641C6D1C20780028F8D12846BDE8F08171
:1019600010B56FF00400FFF79DF90A4800680A49B6
:10197000B0FBF1F0094908700846007800EB40011F
:10198000C1EBC0104FF6FF7101EAC00004490880A6
:1019900010BD00002400002000127A001E0000206C
:1019A000200000200146114A12884A434FF0E023EC
:1019B0005A6100229A611A46126942F001021A61C4
:1019C00000BF4FF0E022106900F001021AB100F4EC
:1019D0008032002AF5D04FF0E022126922F0010295
:1019E0004FF0E0231A6100229A6170472000002026
:1019F00070B504460D46E1B20548FFF785FF00BF0C
:101A000040210348FFF7B8FE0028F9D0204670BDFA
:101A10000038014008B5FEF7ADFFFFF7A1FFFEF764
:101A20003FFFFFF76BF8FEF755FC002059490860AF
:101A30005949C1F88801102251010120FEF774FEB6
:101A4000102220210120FEF76FFE182201210846F6
:101A5000FEF76AFE012002231A464FF41651009049
:101A6000FFF750FC012340F2DC5202214B48FFF704
:101A700031FB41F2883202214848FFF751FB012037
:101A8000474908600123322203214648FFF722FB21
:101A90004FF4487203214348FFF742FB78E0424885
:101AA000008800F40040002872D0404800783038A8
:101AB000082869D2DFE800F004172A343E48535E54
:101AC0003448006808B9012000E00020314908606E
:101AD00000203749C1F8A4013149103908600420B9
:101AE0003449086050E03448006808B9012000E03B
:101AF00000203149086000202D49C1F8A40128497F
:101B00001039086004202B4908603DE0002024497A
:101B100008602749C1F8940103202649086033E092
:101B200000201F4908602249C1F89401032021497F
:101B3000086029E000201A4908601D49C1F8940195
:101B400003201C4908601FE000201549086001209F
:101B50001749C1F8940102201649086014E00020DA
:101B60000F49086001201249C1F89401022011496F
:101B7000086009E000200A49086001200C49C1F80A
:101B800094010C49086000BF00BF0020064908808E
:101B900085E70000A00121420080224200080040A9
:101BA000A4812142000400401C0000203C000020D1
:101BB000008021420000002088812242DC1B0008B6
:101BC000000000203C00000020190008181C00083C
:101BD0003C000020F4040000301900080000000060
:101BE00000000000010203040102030406070809C3
:101BF00002040608000000000000000000000000D1
:101C000000A24A04000000000000000001020304DA
:081C10000607080900000000AE
:04000005080000ED02
:00000001FF
